{
  "contractName": "SplitPayment",
  "abi": [
    {
      "inputs": [
        {
          "internalType": "address",
          "name": "_owner",
          "type": "address"
        }
      ],
      "stateMutability": "nonpayable",
      "type": "constructor"
    },
    {
      "anonymous": false,
      "inputs": [
        {
          "indexed": true,
          "internalType": "address",
          "name": "to",
          "type": "address"
        },
        {
          "indexed": false,
          "internalType": "uint256",
          "name": "amount",
          "type": "uint256"
        }
      ],
      "name": "PaymentSent",
      "type": "event"
    },
    {
      "inputs": [],
      "name": "owner",
      "outputs": [
        {
          "internalType": "address",
          "name": "",
          "type": "address"
        }
      ],
      "stateMutability": "view",
      "type": "function",
      "constant": true
    },
    {
      "inputs": [
        {
          "internalType": "address payable[]",
          "name": "to",
          "type": "address[]"
        },
        {
          "internalType": "uint256[]",
          "name": "amount",
          "type": "uint256[]"
        }
      ],
      "name": "send",
      "outputs": [],
      "stateMutability": "payable",
      "type": "function",
      "payable": true
    }
  ],
  "bytecode": "0x608060405234801561001057600080fd5b50604051610815380380610815833981810160405281019061003291906100db565b806000806101000a81548173ffffffffffffffffffffffffffffffffffffffff021916908373ffffffffffffffffffffffffffffffffffffffff16021790555050610108565b600080fd5b600073ffffffffffffffffffffffffffffffffffffffff82169050919050565b60006100a88261007d565b9050919050565b6100b88161009d565b81146100c357600080fd5b50565b6000815190506100d5816100af565b92915050565b6000602082840312156100f1576100f0610078565b5b60006100ff848285016100c6565b91505092915050565b6106fe806101176000396000f3fe6080604052600436106100295760003560e01c80638da5cb5b1461002e578063a645ff5f14610059575b600080fd5b34801561003a57600080fd5b50610043610075565b60405161005091906102ed565b60405180910390f35b610073600480360381019061006e91906103cd565b610099565b005b60008054906101000a900473ffffffffffffffffffffffffffffffffffffffff1681565b60008054906101000a900473ffffffffffffffffffffffffffffffffffffffff1673ffffffffffffffffffffffffffffffffffffffff163373ffffffffffffffffffffffffffffffffffffffff1614610127576040517f08c379a000000000000000000000000000000000000000000000000000000000815260040161011e906104d1565b60405180910390fd5b81819050848490501461016f576040517f08c379a000000000000000000000000000000000000000000000000000000000815260040161016690610563565b60405180910390fd5b60005b848490508110156102a5578484828181106101905761018f610583565b5b90506020020160208101906101a591906105f0565b73ffffffffffffffffffffffffffffffffffffffff166108fc8484848181106101d1576101d0610583565b5b905060200201359081150290604051600060405180830381858888f19350505050158015610203573d6000803e3d6000fd5b5084848281811061021757610216610583565b5b905060200201602081019061022c91906105f0565b73ffffffffffffffffffffffffffffffffffffffff167f47db2abce6d5fbcd80ffd9b4ba74dcde804a746ef732bc7f8a70fabfc912c59084848481811061027657610275610583565b5b9050602002013560405161028a9190610636565b60405180910390a2808061029d90610680565b915050610172565b5050505050565b600073ffffffffffffffffffffffffffffffffffffffff82169050919050565b60006102d7826102ac565b9050919050565b6102e7816102cc565b82525050565b600060208201905061030260008301846102de565b92915050565b600080fd5b600080fd5b600080fd5b600080fd5b600080fd5b60008083601f84011261033757610336610312565b5b8235905067ffffffffffffffff81111561035457610353610317565b5b6020830191508360208202830111156103705761036f61031c565b5b9250929050565b60008083601f84011261038d5761038c610312565b5b8235905067ffffffffffffffff8111156103aa576103a9610317565b5b6020830191508360208202830111156103c6576103c561031c565b5b9250929050565b600080600080604085870312156103e7576103e6610308565b5b600085013567ffffffffffffffff8111156104055761040461030d565b5b61041187828801610321565b9450945050602085013567ffffffffffffffff8111156104345761043361030d565b5b61044087828801610377565b925092505092959194509250565b600082825260208201905092915050565b7f4f6e6c7920746865206f776e65722063616e2063616c6c20746869732066756e60008201527f6374696f6e000000000000000000000000000000000000000000000000000000602082015250565b60006104bb60258361044e565b91506104c68261045f565b604082019050919050565b600060208201905081810360008301526104ea816104ae565b9050919050565b7f417272617973206d757374206265206f66207468652073616d65206c656e677460008201527f6800000000000000000000000000000000000000000000000000000000000000602082015250565b600061054d60218361044e565b9150610558826104f1565b604082019050919050565b6000602082019050818103600083015261057c81610540565b9050919050565b7f4e487b7100000000000000000000000000000000000000000000000000000000600052603260045260246000fd5b60006105bd826102ac565b9050919050565b6105cd816105b2565b81146105d857600080fd5b50565b6000813590506105ea816105c4565b92915050565b60006020828403121561060657610605610308565b5b6000610614848285016105db565b91505092915050565b6000819050919050565b6106308161061d565b82525050565b600060208201905061064b6000830184610627565b92915050565b7f4e487b7100000000000000000000000000000000000000000000000000000000600052601160045260246000fd5b600061068b8261061d565b91507fffffffffffffffffffffffffffffffffffffffffffffffffffffffffffffffff82036106bd576106bc610651565b5b60018201905091905056fea2646970667358221220c1a217c0d39046de92b6a46d0aec3966a20c9fc5f6267e904b91d459a9e82f8b64736f6c63430008130033",
  "immutableReferences": {},
  "source": "// SPDX-License-Identifier: MIT\npragma solidity ^0.8.19;\n\n\ncontract SplitPayment {\n  address public owner;\n\n  event PaymentSent(address indexed to, uint256 amount);\n  \n  constructor(address _owner) {\n      owner = _owner; \n  }\n\n  function send(address payable[] calldata to, uint[] calldata amount) \n    external\n    payable\n    ownerOnly {\n    require(to.length == amount.length, 'Arrays must be of the same length');\n    for(uint i = 0; i < to.length; i++) {\n      to[i].transfer(amount[i]);\n      emit PaymentSent(to[i], amount[i]);\n    }\n  }\n  \n  modifier ownerOnly() {\n    require(msg.sender == owner, \"Only the owner can call this function\");\n    _;\n  }\n}\n",
  "sourcePath": "/Users/mariaso/Blockchain projects/split-payment-blockchain/contracts/SplitPayment.sol",
  "compiler": {
    "name": "solc",
    "version": "0.8.19+commit.7dd6d404.Emscripten.clang"
  },
  "schemaVersion": "3.4.6",
  "updatedAt": "2024-06-27T21:20:14.725Z",
  "networkType": "ethereum",
  "devdoc": {
    "kind": "dev",
    "methods": {},
    "version": 1
  },
  "userdoc": {
    "kind": "user",
    "methods": {},
    "version": 1
  }
}