{
  "contractName": "SplitPayment",
  "abi": [
    {
      "inputs": [
        {
          "internalType": "address",
          "name": "_owner",
          "type": "address"
        }
      ],
      "stateMutability": "nonpayable",
      "type": "constructor"
    },
    {
      "inputs": [
        {
          "internalType": "address payable[]",
          "name": "to",
          "type": "address[]"
        },
        {
          "internalType": "uint256[]",
          "name": "amount",
          "type": "uint256[]"
        }
      ],
      "name": "send",
      "outputs": [],
      "stateMutability": "payable",
      "type": "function",
      "payable": true
    }
  ],
  "bytecode": "0x608060405234801561001057600080fd5b506040516107ee3803806107ee833981810160405281019061003291906100db565b806000806101000a81548173ffffffffffffffffffffffffffffffffffffffff021916908373ffffffffffffffffffffffffffffffffffffffff16021790555050610108565b600080fd5b600073ffffffffffffffffffffffffffffffffffffffff82169050919050565b60006100a88261007d565b9050919050565b6100b88161009d565b81146100c357600080fd5b50565b6000815190506100d5816100af565b92915050565b6000602082840312156100f1576100f0610078565b5b60006100ff848285016100c6565b91505092915050565b6106d7806101176000396000f3fe60806040526004361061001e5760003560e01c8063a645ff5f14610023575b600080fd5b61003d60048036038101906100389190610474565b61003f565b005b60008054906101000a900473ffffffffffffffffffffffffffffffffffffffff1673ffffffffffffffffffffffffffffffffffffffff163373ffffffffffffffffffffffffffffffffffffffff16146100cd576040517f08c379a00000000000000000000000000000000000000000000000000000000081526004016100c49061056f565b60405180910390fd5b8051825114610111576040517f08c379a0000000000000000000000000000000000000000000000000000000008152600401610108906105db565b60405180910390fd5b60005b82518110156101ab578281815181106101305761012f6105fb565b5b602002602001015173ffffffffffffffffffffffffffffffffffffffff166108fc838381518110610164576101636105fb565b5b60200260200101519081150290604051600060405180830381858888f19350505050158015610197573d6000803e3d6000fd5b5080806101a390610659565b915050610114565b505050565b6000604051905090565b600080fd5b600080fd5b600080fd5b6000601f19601f8301169050919050565b7f4e487b7100000000000000000000000000000000000000000000000000000000600052604160045260246000fd5b610212826101c9565b810181811067ffffffffffffffff82111715610231576102306101da565b5b80604052505050565b60006102446101b0565b90506102508282610209565b919050565b600067ffffffffffffffff8211156102705761026f6101da565b5b602082029050602081019050919050565b600080fd5b600073ffffffffffffffffffffffffffffffffffffffff82169050919050565b60006102b182610286565b9050919050565b6102c1816102a6565b81146102cc57600080fd5b50565b6000813590506102de816102b8565b92915050565b60006102f76102f284610255565b61023a565b9050808382526020820190506020840283018581111561031a57610319610281565b5b835b81811015610343578061032f88826102cf565b84526020840193505060208101905061031c565b5050509392505050565b600082601f830112610362576103616101c4565b5b81356103728482602086016102e4565b91505092915050565b600067ffffffffffffffff821115610396576103956101da565b5b602082029050602081019050919050565b6000819050919050565b6103ba816103a7565b81146103c557600080fd5b50565b6000813590506103d7816103b1565b92915050565b60006103f06103eb8461037b565b61023a565b9050808382526020820190506020840283018581111561041357610412610281565b5b835b8181101561043c578061042888826103c8565b845260208401935050602081019050610415565b5050509392505050565b600082601f83011261045b5761045a6101c4565b5b813561046b8482602086016103dd565b91505092915050565b6000806040838503121561048b5761048a6101ba565b5b600083013567ffffffffffffffff8111156104a9576104a86101bf565b5b6104b58582860161034d565b925050602083013567ffffffffffffffff8111156104d6576104d56101bf565b5b6104e285828601610446565b9150509250929050565b600082825260208201905092915050565b7f564d206572726f72207768696c652070726f63657373696e67207472616e736160008201527f6374696f6e3a2072657665727400000000000000000000000000000000000000602082015250565b6000610559602d836104ec565b9150610564826104fd565b604082019050919050565b600060208201905081810360008301526105888161054c565b9050919050565b7f746f206d7573742062652073616d65206c656e67746820617320616d6f756e74600082015250565b60006105c56020836104ec565b91506105d08261058f565b602082019050919050565b600060208201905081810360008301526105f4816105b8565b9050919050565b7f4e487b7100000000000000000000000000000000000000000000000000000000600052603260045260246000fd5b7f4e487b7100000000000000000000000000000000000000000000000000000000600052601160045260246000fd5b6000610664826103a7565b91507fffffffffffffffffffffffffffffffffffffffffffffffffffffffffffffffff82036106965761069561062a565b5b60018201905091905056fea2646970667358221220270be66d9ab5bf381c80a83e9f2c9ff5d24f3f3f1652f2a01b1c468c5f13980164736f6c63430008130033",
  "immutableReferences": {},
  "source": "// SPDX-License-Identifier: MIT\npragma solidity >=0.4.22 <0.9.0;\n\n\ncontract SplitPayment {\n  address owner;\n  \n  constructor(address _owner) {\n      owner = _owner; \n  }\n  \n  function send(address payable[] memory to, uint[] memory amount ) \n    payable \n    public \n    ownerOnly {\n    require(to.length == amount.length, 'to must be same length as amount');\n    for(uint i = 0; i < to.length; i++) {\n      to[i].transfer(amount[i]);\n    }\n  }\n  \n  modifier ownerOnly() {\n    require(msg.sender == owner, \"VM error while processing transaction: revert\");\n    _;\n  }\n}\n",
  "sourcePath": "/Users/mariaso/Blockchain projects/split-payment-blockchain/contracts/SplitPayment.sol",
  "compiler": {
    "name": "solc",
    "version": "0.8.19+commit.7dd6d404.Emscripten.clang"
  },
  "schemaVersion": "3.4.6",
  "updatedAt": "2024-06-22T22:20:39.524Z",
  "networkType": "ethereum",
  "devdoc": {
    "kind": "dev",
    "methods": {},
    "version": 1
  },
  "userdoc": {
    "kind": "user",
    "methods": {},
    "version": 1
  }
}